8=FIX.4.2|9=79|35=A|34=1|49=FixClient8019|52=20161226-00:05:42.863|56=FixAcceptor|98=0|108=60|10=183|8=FIX.4.2|9=146|35=D|34=2|49=FixClient8019|52=20161226-00:05:44.895|56=FixAcceptor|11=APPL12456S|21=3|38=4500|40=1|44=200.9|54=1|55=APPL|60=20161226-00:05:44.888|10=052|8=FIX.4.2|9=115|35=3|34=3|49=FixClient8019|52=20161226-00:05:44.968|56=FixAcceptor|45=2|58=Required tag missing|371=33|372=B|373=1|10=096|8=FIX.4.2|9=67|35=5|34=4|49=FixClient8019|52=20161226-00:05:48.831|56=FixAcceptor|10=144|8=FIX.4.2|9=79|35=A|34=5|49=FixClient8019|52=20161226-00:11:56.558|56=FixAcceptor|98=0|108=60|10=190|8=FIX.4.2|9=76|35=2|34=6|49=FixClient8019|52=20161226-00:11:56.592|56=FixAcceptor|7=4|16=0|10=013|8=FIX.4.2|9=67|35=5|34=7|49=FixClient8019|52=20161226-00:12:02.533|56=FixAcceptor|10=134|8=FIX.4.2|9=67|35=5|34=8|49=FixClient8019|52=20161226-00:12:02.577|56=FixAcceptor|10=143|8=FIX.4.2|9=79|35=A|34=9|49=FixClient8019|52=20161226-00:13:04.158|56=FixAcceptor|98=0|108=60|10=185|8=FIX.4.2|9=147|35=D|34=10|49=FixClient8019|52=20161226-00:13:06.177|56=FixAcceptor|11=APPL12456S|21=3|38=4500|40=1|44=200.9|54=1|55=APPL|60=20161226-00:13:06.170|10=071|8=FIX.4.2|9=116|35=3|34=11|49=FixClient8019|52=20161226-00:13:06.196|56=FixAcceptor|45=9|58=Required tag missing|371=33|372=B|373=1|10=141|8=FIX.4.2|9=68|35=5|34=12|49=FixClient8019|52=20161226-00:13:10.138|56=FixAcceptor|10=180|8=FIX.4.2|9=80|35=A|34=13|49=FixClient8019|52=20161226-00:13:50.831|56=FixAcceptor|98=0|108=60|10=219|8=FIX.4.2|9=147|35=D|34=14|49=FixClient8019|52=20161226-00:13:52.852|56=FixAcceptor|11=APPL12456S|21=3|38=4500|40=1|44=200.9|54=1|55=APPL|60=20161226-00:13:52.847|10=088|8=FIX.4.2|9=117|35=3|34=15|49=FixClient8019|52=20161226-00:13:52.878|56=FixAcceptor|45=13|58=Required tag missing|371=33|372=B|373=1|10=197|8=FIX.4.2|9=68|35=5|34=16|49=FixClient8019|52=20161226-00:13:56.807|56=FixAcceptor|10=197|8=FIX.4.2|9=80|35=A|34=17|49=FixClient8019|52=20161226-22:14:59.060|56=FixAcceptor|98=0|108=60|10=231|8=FIX.4.2|9=78|35=2|34=18|49=FixClient8019|52=20161226-22:14:59.944|56=FixAcceptor|7=15|16=0|10=127|8=FIX.4.2|9=147|35=D|34=19|49=FixClient8019|52=20161226-22:15:02.148|56=FixAcceptor|11=APPL12456S|21=3|38=4500|40=1|44=200.9|54=1|55=APPL|60=20161226-22:15:02.126|10=083|8=FIX.4.2|9=117|35=3|34=20|49=FixClient8019|52=20161226-22:15:05.192|56=FixAcceptor|45=17|58=Required tag missing|371=33|372=B|373=1|10=190|8=FIX.4.2|9=68|35=5|34=21|49=FixClient8019|52=20161226-22:15:05.193|56=FixAcceptor|10=191|8=FIX.4.2|9=80|35=A|34=22|49=FixClient8019|52=20161226-22:16:46.312|56=FixAcceptor|98=0|108=60|10=225|8=FIX.4.2|9=78|35=2|34=23|49=FixClient8019|52=20161226-22:16:46.389|56=FixAcceptor|7=19|16=0|10=128|8=FIX.4.2|9=147|35=D|34=24|49=FixClient8019|52=20161226-22:16:48.337|56=FixAcceptor|11=APPL12456S|21=3|38=4500|40=1|44=200.9|54=1|55=APPL|60=20161226-22:16:48.330|10=098|8=FIX.4.2|9=117|35=3|34=25|49=FixClient8019|52=20161226-22:16:48.382|56=FixAcceptor|45=21|58=Required tag missing|371=33|372=B|373=1|10=199|8=FIX.4.2|9=68|35=5|34=26|49=FixClient8019|52=20161226-22:16:52.287|56=FixAcceptor|10=203|8=FIX.4.2|9=68|35=5|34=27|49=FixClient8019|52=20161226-22:16:52.299|56=FixAcceptor|10=207|8=FIX.4.2|9=80|35=A|34=28|49=FixClient8019|52=20161226-22:23:49.822|56=FixAcceptor|98=0|108=60|10=238|8=FIX.4.2|9=147|35=D|34=29|49=FixClient8019|52=20161226-22:23:51.834|56=FixAcceptor|11=APPL12456S|21=3|38=4500|40=1|44=200.9|54=1|55=APPL|60=20161226-22:23:51.827|10=100|8=FIX.4.2|9=117|35=3|34=30|49=FixClient8019|52=20161226-22:23:51.933|56=FixAcceptor|45=26|58=Required tag missing|371=33|372=B|373=1|10=194|8=FIX.4.2|9=68|35=5|34=31|49=FixClient8019|52=20161226-22:23:55.771|56=FixAcceptor|10=198|